{
  "abi": [
    {
      "inputs": [],
      "name": "args",
      "outputs": [
        {
          "internalType": "bytes",
          "name": "",
          "type": "bytes"
        }
      ],
      "stateMutability": "view",
      "type": "function"
    },
    {
      "inputs": [],
      "name": "binary_check",
      "outputs": [],
      "stateMutability": "nonpayable",
      "type": "function"
    },
    {
      "inputs": [
        {
          "internalType": "bytes",
          "name": "data",
          "type": "bytes"
        }
      ],
      "name": "bytesToString",
      "outputs": [
        {
          "internalType": "string",
          "name": "",
          "type": "string"
        }
      ],
      "stateMutability": "pure",
      "type": "function"
    },
    {
      "inputs": [],
      "name": "code",
      "outputs": [
        {
          "internalType": "string",
          "name": "",
          "type": "string"
        }
      ],
      "stateMutability": "view",
      "type": "function"
    },
    {
      "inputs": [
        {
          "internalType": "uint256",
          "name": "",
          "type": "uint256"
        }
      ],
      "name": "const_overrides",
      "outputs": [
        {
          "internalType": "string",
          "name": "key",
          "type": "string"
        },
        {
          "internalType": "string",
          "name": "value",
          "type": "string"
        }
      ],
      "stateMutability": "view",
      "type": "function"
    },
    {
      "inputs": [
        {
          "internalType": "string",
          "name": "file",
          "type": "string"
        }
      ],
      "name": "deploy",
      "outputs": [
        {
          "internalType": "address",
          "name": "",
          "type": "address"
        }
      ],
      "stateMutability": "payable",
      "type": "function"
    },
    {
      "inputs": [
        {
          "internalType": "bool",
          "name": "broadcast",
          "type": "bool"
        }
      ],
      "name": "set_broadcast",
      "outputs": [
        {
          "internalType": "contract HuffConfig",
          "name": "",
          "type": "address"
        }
      ],
      "stateMutability": "nonpayable",
      "type": "function"
    },
    {
      "inputs": [],
      "name": "should_broadcast",
      "outputs": [
        {
          "internalType": "bool",
          "name": "",
          "type": "bool"
        }
      ],
      "stateMutability": "view",
      "type": "function"
    },
    {
      "inputs": [],
      "name": "value",
      "outputs": [
        {
          "internalType": "uint256",
          "name": "",
          "type": "uint256"
        }
      ],
      "stateMutability": "view",
      "type": "function"
    },
    {
      "inputs": [],
      "name": "vm",
      "outputs": [
        {
          "internalType": "contract Vm",
          "name": "",
          "type": "address"
        }
      ],
      "stateMutability": "view",
      "type": "function"
    },
    {
      "inputs": [
        {
          "internalType": "string",
          "name": "key",
          "type": "string"
        },
        {
          "internalType": "address",
          "name": "value_",
          "type": "address"
        }
      ],
      "name": "with_addr_constant",
      "outputs": [
        {
          "internalType": "contract HuffConfig",
          "name": "",
          "type": "address"
        }
      ],
      "stateMutability": "nonpayable",
      "type": "function"
    },
    {
      "inputs": [
        {
          "internalType": "bytes",
          "name": "args_",
          "type": "bytes"
        }
      ],
      "name": "with_args",
      "outputs": [
        {
          "internalType": "contract HuffConfig",
          "name": "",
          "type": "address"
        }
      ],
      "stateMutability": "nonpayable",
      "type": "function"
    },
    {
      "inputs": [
        {
          "internalType": "string",
          "name": "key",
          "type": "string"
        },
        {
          "internalType": "bytes32",
          "name": "value_",
          "type": "bytes32"
        }
      ],
      "name": "with_bytes32_constant",
      "outputs": [
        {
          "internalType": "contract HuffConfig",
          "name": "",
          "type": "address"
        }
      ],
      "stateMutability": "nonpayable",
      "type": "function"
    },
    {
      "inputs": [
        {
          "internalType": "string",
          "name": "code_",
          "type": "string"
        }
      ],
      "name": "with_code",
      "outputs": [
        {
          "internalType": "contract HuffConfig",
          "name": "",
          "type": "address"
        }
      ],
      "stateMutability": "nonpayable",
      "type": "function"
    },
    {
      "inputs": [
        {
          "internalType": "string",
          "name": "key",
          "type": "string"
        },
        {
          "internalType": "string",
          "name": "value_",
          "type": "string"
        }
      ],
      "name": "with_constant",
      "outputs": [
        {
          "internalType": "contract HuffConfig",
          "name": "",
          "type": "address"
        }
      ],
      "stateMutability": "nonpayable",
      "type": "function"
    },
    {
      "inputs": [
        {
          "internalType": "string",
          "name": "key",
          "type": "string"
        },
        {
          "internalType": "uint256",
          "name": "value_",
          "type": "uint256"
        }
      ],
      "name": "with_uint_constant",
      "outputs": [
        {
          "internalType": "contract HuffConfig",
          "name": "",
          "type": "address"
        }
      ],
      "stateMutability": "nonpayable",
      "type": "function"
    },
    {
      "inputs": [
        {
          "internalType": "uint256",
          "name": "value_",
          "type": "uint256"
        }
      ],
      "name": "with_value",
      "outputs": [
        {
          "internalType": "contract HuffConfig",
          "name": "",
          "type": "address"
        }
      ],
      "stateMutability": "nonpayable",
      "type": "function"
    }
  ],
  "bytecode": {
    "object": "0x608060405234801561000f575f80fd5b506123bc8061001d5f395ff3fe6080604052600436106100fa575f3560e01c80636b07af1011610092578063c5effd0211610062578063c5effd02146102a6578063c7602316146102bc578063df9f3dee146102cf578063e5df307614610228578063e9e68e1d146102fe575f80fd5b80636b07af10146102285780636fcef9d5146102475780637dc2225f146102665780638093a1b914610287575f80fd5b806339614e4f116100cd57806339614e4f146101ab5780633a768463146101ca5780633fa4f245146101f15780634e9b75b614610214575f80fd5b80630c7d1681146100fe5780632232d9081461013457806324c12bf61461016b57806328764d141461018c575b5f80fd5b348015610109575f80fd5b5061011d6101183660046119e8565b610327565b60405161012b929190611a4c565b60405180910390f35b34801561013f575f80fd5b5061015361014e366004611b43565b610462565b6040516001600160a01b03909116815260200161012b565b348015610176575f80fd5b5061017f610476565b60405161012b9190611b74565b348015610197575f80fd5b506101536101a6366004611b86565b610501565b3480156101b6575f80fd5b5061017f6101c5366004611b86565b61050e565b3480156101d5575f80fd5b50610153737109709ecfa91a80626ff3989d68f67f5b1dd12d81565b3480156101fc575f80fd5b5061020660025481565b60405190815260200161012b565b34801561021f575f80fd5b5061017f61071f565b348015610233575f80fd5b50610153610242366004611bca565b61072c565b348015610252575f80fd5b50610153610261366004611c0b565b6107b4565b348015610271575f80fd5b506101536102803660046119e8565b6002553090565b348015610292575f80fd5b506101536102a1366004611c64565b6107f4565b3480156102b1575f80fd5b506102ba61084f565b005b6101536102ca366004611b43565b6109ec565b3480156102da575f80fd5b506101536102e9366004611cc3565b6003805460ff19169115159190911790553090565b348015610309575f80fd5b506003546103179060ff1681565b604051901515815260200161012b565b60048181548110610336575f80fd5b905f5260205f2090600202015f91509050805f01805461035590611ce2565b80601f016020809104026020016040519081016040528092919081815260200182805461038190611ce2565b80156103cc5780601f106103a3576101008083540402835291602001916103cc565b820191905f5260205f20905b8154815290600101906020018083116103af57829003601f168201915b5050505050908060010180546103e190611ce2565b80601f016020809104026020016040519081016040528092919081815260200182805461040d90611ce2565b80156104585780601f1061042f57610100808354040283529160200191610458565b820191905f5260205f20905b81548152906001019060200180831161043b57829003601f168201915b5050505050905082565b5f8061046e8382611d68565b503092915050565b5f805461048290611ce2565b80601f01602080910402602001604051908101604052809291908181526020018280546104ae90611ce2565b80156104f95780601f106104d0576101008083540402835291602001916104f9565b820191905f5260205f20905b8154815290600101906020018083116104dc57829003601f168201915b505050505081565b5f600161046e8382611d68565b60408051808201909152601081526f181899199a1a9b1b9c1cb0b131b232b360811b60208201528151606091905f90610548906002611e37565b610553906002611e4e565b6001600160401b0381111561056a5761056a611a79565b6040519080825280601f01601f191660200182016040528015610594576020820181803683370190505b509050600360fc1b815f815181106105ae576105ae611e61565b60200101906001600160f81b03191690815f1a905350600f60fb1b816001815181106105dc576105dc611e61565b60200101906001600160f81b03191690815f1a9053505f5b84518110156107175782600486838151811061061257610612611e61565b016020015182516001600160f81b031990911690911c60f81c90811061063a5761063a611e61565b01602001516001600160f81b03191682610655836002611e37565b610660906002611e4e565b8151811061067057610670611e61565b60200101906001600160f81b03191690815f1a9053508285828151811061069957610699611e61565b602091010151815160f89190911c600f169081106106b9576106b9611e61565b01602001516001600160f81b031916826106d4836002611e37565b6106df906003611e4e565b815181106106ef576106ef611e61565b60200101906001600160f81b03191690815f1a9053508061070f81611e75565b9150506105f4565b509392505050565b6001805461048290611ce2565b5f6004604051806040016040528085815260200161076a8560405160200161075691815260200190565b60405160208183030381529060405261050e565b905281546001810183555f928352602090922081519192600202019081906107929082611d68565b50602082015160018201906107a79082611d68565b5050503090505b92915050565b5f6004604051806040016040528085815260200161076a85604051602001610756919060609190911b6bffffffffffffffffffffffff1916815260140190565b6040805180820190915282815260208101829052600480546001810182555f918252825191929160029091027f8a35acfbc15ff81a39ae7d344fd709f28e8600b4aa8c65c6b64bfe7fe36bd19b019081906107929082611d68565b6040805160018082528183019092525f91816020015b60608152602001906001900390816108655790505090506040518060600160405280602a81526020016122df602a9139815f815181106108a7576108a7611e61565b6020908102919091010152604051638916046760e01b81525f90737109709ecfa91a80626ff3989d68f67f5b1dd12d906389160467906108eb908590600401611e8d565b5f604051808303815f875af1158015610906573d5f803e3d5ffd5b505050506040513d5f823e601f3d908101601f1916820160405261092d9190810190611eed565b90505f815f8151811061094257610942611e61565b01602001516001600160f81b0319169050600160f81b8114806109e65760405162461bcd60e51b815260206004820152604b60248201527f496e76616c69642068756666632062696e6172792e2052756e20606375726c2060448201527f2d4c206765742e687566662e7368207c20626173686020616e6420606875666660648201526a3ab830103a37903334bc1760a91b608482015260a4015b60405180910390fd5b50505050565b5f6109f561084f565b5f610a26836040805180820182525f8082526020918201528151808301909252825182529182019181019190915290565b60408051808201825260018152602f60f81b6020808301918252835180850185525f80825290820181905284518086019095529251845283015291925090610a6e83836115ef565b610a79906001611e4e565b6001600160401b03811115610a9057610a90611a79565b604051908082528060200260200182016040528015610ac357816020015b6060815260200190600190039081610aae5790505b5090505f5b8151811015610b1357610ae3610ade858561168a565b6116a8565b828281518110610af557610af5611e61565b60200260200101819052508080610b0b90611e75565b915050610ac8565b506040805160018082528183019092525f91816020015b6060815260200190600190039081610b2a57905050905060405180606001604052806028815260200161235f60289139815f81518110610b6c57610b6c611e61565b6020908102919091010152604051638916046760e01b81525f90737109709ecfa91a80626ff3989d68f67f5b1dd12d90638916046790610bb0908590600401611e8d565b5f604051808303815f875af1158015610bcb573d5f803e3d5ffd5b505050506040513d5f823e601f3d908101601f19168201604052610bf29190810190611eed565b90505f610c2e610c0183611f55565b604051602001610c1391815260200190565b6040516020818303038152906040528051906020012061170c565b90505f845f81518110610c4357610c43611e61565b602002602001015190506001855111610c7f578181604051602001610c69929190611f78565b6040516020818303038152906040529050610d35565b60015b60018651610c909190611fbd565b811015610ce75781868281518110610caa57610caa611e61565b6020026020010151604051602001610cc3929190611fd0565b60405160208183030381529060405291508080610cdf90611e75565b915050610c82565b5080828660018851610cf99190611fbd565b81518110610d0957610d09611e61565b6020026020010151604051602001610d239392919061200b565b60405160208183030381529060405290505b604080516003808252608082019092525f91816020015b6060815260200190600190039081610d4c57905050905060405180606001604052806029815260200161230960299139815f81518110610d8e57610d8e611e61565b602002602001018190525081604051602001610daa919061206e565b60405160208183030381529060405281600181518110610dcc57610dcc611e61565b60200260200101819052505f604051602001610de89190612117565b60405160208183030381529060405281600281518110610e0a57610e0a611e61565b6020908102919091010152604051638916046760e01b8152737109709ecfa91a80626ff3989d68f67f5b1dd12d90638916046790610e4c908490600401611e8d565b5f604051808303815f875af1158015610e67573d5f803e3d5ffd5b505050506040513d5f823e601f3d908101601f19168201604052610e8e9190810190611eed565b50604080516003808252608082019092525f91816020015b6060815260200190600190039081610ea65790505090506040518060600160405280602d8152602001612332602d9139815f81518110610ee857610ee8611e61565b602002602001018190525082604051602001610f04919061206e565b60405160208183030381529060405281600181518110610f2657610f26611e61565b60200260200101819052508a604051602001610f42919061206e565b60405160208183030381529060405281600281518110610f6457610f64611e61565b6020908102919091010152604051638916046760e01b8152737109709ecfa91a80626ff3989d68f67f5b1dd12d90638916046790610fa6908490600401611e8d565b5f604051808303815f875af1158015610fc1573d5f803e3d5ffd5b505050506040513d5f823e601f3d908101601f19168201604052610fe89190810190611eed565b50604080516003808252608082019092525f91816020015b60608152602001906001900390816110005750506004549091501561128d576004805461102c91611e4e565b6001600160401b0381111561104357611043611a79565b60405190808252806020026020018201604052801561107657816020015b60608152602001906001900390816110615790505b509050604051806040016040528060028152602001612d6360f01b815250816003815181106110a7576110a7611e61565b60200260200101819052506110cf604051806040016040528060608152602001606081525090565b5f5b60045481101561128a57600481815481106110ee576110ee611e61565b905f5260205f2090600202016040518060400160405290815f8201805461111490611ce2565b80601f016020809104026020016040519081016040528092919081815260200182805461114090611ce2565b801561118b5780601f106111625761010080835404028352916020019161118b565b820191905f5260205f20905b81548152906001019060200180831161116e57829003601f168201915b505050505081526020016001820180546111a490611ce2565b80601f01602080910402602001604051908101604052809291908181526020018280546111d090611ce2565b801561121b5780601f106111f25761010080835404028352916020019161121b565b820191905f5260205f20905b8154815290600101906020018083116111fe57829003601f168201915b5050505050815250509150815f01518260200151604051602001611240929190612133565b60408051601f198184030181529190528361125c836004611e4e565b8151811061126c5761126c611e61565b6020026020010181905250808061128290611e75565b9150506110d1565b50505b60405180604001604052806005815260200164687566666360d81b815250815f815181106112bd576112bd611e61565b6020026020010181905250836040516020016112d9919061206e565b604051602081830303815290604052816001815181106112fb576112fb611e61565b60200260200101819052506040518060400160405280600281526020016116b160f11b8152508160028151811061133457611334611e61565b6020908102919091010152604051638916046760e01b81525f90737109709ecfa91a80626ff3989d68f67f5b1dd12d90638916046790611378908590600401611e8d565b5f604051808303815f875af1158015611393573d5f803e3d5ffd5b505050506040513d5f823e601f3d908101601f191682016040526113ba9190810190611eed565b90505f8160016040516020016113d1929190612162565b60408051808303601f1901815260028084526060840190925292505f9190816020015b60608152602001906001900390816113f457905050905060405180604001604052806002815260200161726d60f01b815250815f8151811061143857611438611e61565b602002602001018190525086604051602001611454919061206e565b6040516020818303038152906040528160018151811061147657611476611e61565b6020908102919091010152604051638916046760e01b8152737109709ecfa91a80626ff3989d68f67f5b1dd12d906389160467906114b8908490600401611e8d565b5f604051808303815f875af11580156114d3573d5f803e3d5ffd5b505050506040513d5f823e601f3d908101601f191682016040526114fa9190810190611eed565b506003545f9060ff161561156957604080516302bf260160e61b81529051737109709ecfa91a80626ff3989d68f67f5b1dd12d9163afc98040916004808301925f92919082900301818387803b158015611552575f80fd5b505af1158015611564573d5f803e3d5ffd5b505050505b60025483516020850182f09150506001600160a01b0381166115dc5760405162461bcd60e51b815260206004820152602660248201527f487566664465706c6f79657220636f756c64206e6f74206465706c6f7920636f6044820152651b9d1c9858dd60d21b60648201526084016109dd565b9f9e505050505050505050505050505050565b5f80825f015161160f855f01518660200151865f015187602001516117ab565b6116199190611e4e565b90505b8351602085015161162d9190611e4e565b8111611683578161163d81611e75565b925050825f01516116728560200151836116579190611fbd565b86516116639190611fbd565b83865f015187602001516117ab565b61167c9190611e4e565b905061161c565b5092915050565b604080518082019091525f80825260208201526116838383836118c9565b60605f825f01516001600160401b038111156116c6576116c6611a79565b6040519080825280601f01601f1916602001820160405280156116f0576020820181803683370190505b5090505f602082019050611683818560200151865f015161196f565b6060805f5b60208110156116835781601a85836020811061172f5761172f611e61565b61173b9291901a61217f565b6117469060616121ac565b604051602001611769919060f89190911b6001600160f81b031916815260010190565b60408051601f198184030181529082905261178792916020016121c5565b604051602081830303815290604052915080806117a390611e75565b915050611711565b5f83818685116118b25760208511611862575f85156117f55760016117d1876020611fbd565b6117dc906008611e37565b6117e79060026122d3565b6117f19190611fbd565b1990505b845181165f876118058b8b611e4e565b61180f9190611fbd565b855190915083165b8281146118545781861061183c5761182f8b8b611e4e565b96505050505050506118c1565b8561184681611e75565b965050838651169050611817565b8596505050505050506118c1565b508383205f905b6118738689611fbd565b82116118b05785832080820361188f57839450505050506118c1565b61189a600185611e4e565b93505081806118a890611e75565b925050611869565b505b6118bc8787611e4e565b925050505b949350505050565b604080518082019091525f80825260208201525f6118f7855f01518660200151865f015187602001516117ab565b6020808701805191860191909152519091506119139082611fbd565b8352845160208601516119269190611e4e565b8103611934575f8552611966565b835183516119429190611e4e565b85518690611951908390611fbd565b90525083516119609082611e4e565b60208601525b50909392505050565b602081106119a75781518352611986602084611e4e565b9250611993602083611e4e565b91506119a0602082611fbd565b905061196f565b5f1981156119d55760016119bc836020611fbd565b6119c8906101006122d3565b6119d29190611fbd565b90505b9151835183169219169190911790915250565b5f602082840312156119f8575f80fd5b5035919050565b5f5b83811015611a19578181015183820152602001611a01565b50505f910152565b5f8151808452611a388160208601602086016119ff565b601f01601f19169290920160200192915050565b604081525f611a5e6040830185611a21565b8281036020840152611a708185611a21565b95945050505050565b634e487b7160e01b5f52604160045260245ffd5b604051601f8201601f191681016001600160401b0381118282101715611ab557611ab5611a79565b604052919050565b5f6001600160401b03821115611ad557611ad5611a79565b50601f01601f191660200190565b5f611af5611af084611abd565b611a8d565b9050828152838383011115611b08575f80fd5b828260208301375f602084830101529392505050565b5f82601f830112611b2d575f80fd5b611b3c83833560208501611ae3565b9392505050565b5f60208284031215611b53575f80fd5b81356001600160401b03811115611b68575f80fd5b6118c184828501611b1e565b602081525f611b3c6020830184611a21565b5f60208284031215611b96575f80fd5b81356001600160401b03811115611bab575f80fd5b8201601f81018413611bbb575f80fd5b6118c184823560208401611ae3565b5f8060408385031215611bdb575f80fd5b82356001600160401b03811115611bf0575f80fd5b611bfc85828601611b1e565b95602094909401359450505050565b5f8060408385031215611c1c575f80fd5b82356001600160401b03811115611c31575f80fd5b611c3d85828601611b1e565b92505060208301356001600160a01b0381168114611c59575f80fd5b809150509250929050565b5f8060408385031215611c75575f80fd5b82356001600160401b0380821115611c8b575f80fd5b611c9786838701611b1e565b93506020850135915080821115611cac575f80fd5b50611cb985828601611b1e565b9150509250929050565b5f60208284031215611cd3575f80fd5b81358015158114611b3c575f80fd5b600181811c90821680611cf657607f821691505b602082108103611d1457634e487b7160e01b5f52602260045260245ffd5b50919050565b601f821115611d63575f81815260208120601f850160051c81016020861015611d405750805b601f850160051c820191505b81811015611d5f57828155600101611d4c565b5050505b505050565b81516001600160401b03811115611d8157611d81611a79565b611d9581611d8f8454611ce2565b84611d1a565b602080601f831160018114611dc8575f8415611db15750858301515b5f19600386901b1c1916600185901b178555611d5f565b5f85815260208120601f198616915b82811015611df657888601518255948401946001909101908401611dd7565b5085821015611e1357878501515f19600388901b60f8161c191681555b5050505050600190811b01905550565b634e487b7160e01b5f52601160045260245ffd5b80820281158282048414176107ae576107ae611e23565b808201808211156107ae576107ae611e23565b634e487b7160e01b5f52603260045260245ffd5b5f60018201611e8657611e86611e23565b5060010190565b5f602080830181845280855180835260408601915060408160051b87010192508387015f5b82811015611ee057603f19888603018452611ece858351611a21565b94509285019290850190600101611eb2565b5092979650505050505050565b5f60208284031215611efd575f80fd5b81516001600160401b03811115611f12575f80fd5b8201601f81018413611f22575f80fd5b8051611f30611af082611abd565b818152856020838501011115611f44575f80fd5b611a708260208301602086016119ff565b80516020808301519190811015611d14575f1960209190910360031b1b16919050565b675f5f54454d505f5f60c01b81525f8351611f9a8160088501602088016119ff565b835190830190611fb18160088401602088016119ff565b01600801949350505050565b818103818111156107ae576107ae611e23565b5f8351611fe18184602088016119ff565b602f60f81b9083019081528351611fff8160018401602088016119ff565b01600101949350505050565b5f845161201c8184602089016119ff565b602f60f81b908301908152675f5f54454d505f5f60c01b6001820152845161204b8160098401602089016119ff565b84519101906120618160098401602088016119ff565b0160090195945050505050565b637372632f60e01b81525f825161208c8160048501602087016119ff565b6417343ab33360d91b6004939091019283015250600901919050565b5f81546120b481611ce2565b600182811680156120cc57600181146120e15761210d565b60ff198416875282151583028701945061210d565b855f526020805f205f5b858110156121045781548a8201529084019082016120eb565b50505082870194505b5050505092915050565b5f61212282846120a8565b600560f91b81526001019392505050565b5f83516121448184602088016119ff565b603d60f81b9083019081528351611fff8160018401602088016119ff565b5f83516121738184602088016119ff565b611a70818401856120a8565b5f60ff83168061219d57634e487b7160e01b5f52601260045260245ffd5b8060ff84160691505092915050565b60ff81811683821601908111156107ae576107ae611e23565b5f83516121d68184602088016119ff565b8351908301906121ea8183602088016119ff565b01949350505050565b600181815b8085111561222d57815f190482111561221357612213611e23565b8085161561222057918102915b93841c93908002906121f8565b509250929050565b5f82612243575060016107ae565b8161224f57505f6107ae565b8160018114612265576002811461226f5761228b565b60019150506107ae565b60ff84111561228057612280611e23565b50506001821b6107ae565b5060208310610133831016604e8410600b84101617156122ae575081810a6107ae565b6122b883836121f3565b805f19048211156122cb576122cb611e23565b029392505050565b5f611b3c838361223556fe2e2f6c69622f666f756e6472792d687566662f736372697074732f62696e6172795f636865636b2e73682e2f6c69622f666f756e6472792d687566662f736372697074732f66696c655f7772697465722e73682e2f6c69622f666f756e6472792d687566662f736372697074732f726561645f616e645f617070656e642e73682e2f6c69622f666f756e6472792d687566662f736372697074732f72616e645f62797465732e7368a2646970667358221220574226ea31611f0c5b2d1dd43b12f981f2226f48603bf6755500da934015abdf64736f6c63430008140033",
    "linkReferences": {}
  },
  "methodIdentifiers": {
    "args()": "4e9b75b6",
    "binary_check()": "c5effd02",
    "bytesToString(bytes)": "39614e4f",
    "code()": "24c12bf6",
    "const_overrides(uint256)": "0c7d1681",
    "deploy(string)": "c7602316",
    "set_broadcast(bool)": "df9f3dee",
    "should_broadcast()": "e9e68e1d",
    "value()": "3fa4f245",
    "vm()": "3a768463",
    "with_addr_constant(string,address)": "6fcef9d5",
    "with_args(bytes)": "28764d14",
    "with_bytes32_constant(string,bytes32)": "e5df3076",
    "with_code(string)": "2232d908",
    "with_constant(string,string)": "8093a1b9",
    "with_uint_constant(string,uint256)": "6b07af10",
    "with_value(uint256)": "7dc2225f"
  },
  "id": 7
}